{
  "_format": "hh-sol-artifact-1",
  "contractName": "VminaNFT",
  "sourceName": "contracts/VminaNFT.sol",
  "abi": [
    {
      "inputs": [],
      "stateMutability": "nonpayable",
      "type": "constructor"
    },
    {
      "anonymous": false,
      "inputs": [
        {
          "indexed": true,
          "internalType": "address",
          "name": "owner",
          "type": "address"
        },
        {
          "indexed": true,
          "internalType": "address",
          "name": "approved",
          "type": "address"
        },
        {
          "indexed": true,
          "internalType": "uint256",
          "name": "tokenId",
          "type": "uint256"
        }
      ],
      "name": "Approval",
      "type": "event"
    },
    {
      "anonymous": false,
      "inputs": [
        {
          "indexed": true,
          "internalType": "address",
          "name": "owner",
          "type": "address"
        },
        {
          "indexed": true,
          "internalType": "address",
          "name": "operator",
          "type": "address"
        },
        {
          "indexed": false,
          "internalType": "bool",
          "name": "approved",
          "type": "bool"
        }
      ],
      "name": "ApprovalForAll",
      "type": "event"
    },
    {
      "anonymous": false,
      "inputs": [
        {
          "indexed": true,
          "internalType": "address",
          "name": "previousOwner",
          "type": "address"
        },
        {
          "indexed": true,
          "internalType": "address",
          "name": "newOwner",
          "type": "address"
        }
      ],
      "name": "OwnershipTransferred",
      "type": "event"
    },
    {
      "anonymous": false,
      "inputs": [
        {
          "indexed": true,
          "internalType": "address",
          "name": "from",
          "type": "address"
        },
        {
          "indexed": true,
          "internalType": "address",
          "name": "to",
          "type": "address"
        },
        {
          "indexed": true,
          "internalType": "uint256",
          "name": "tokenId",
          "type": "uint256"
        }
      ],
      "name": "Transfer",
      "type": "event"
    },
    {
      "inputs": [
        {
          "internalType": "address",
          "name": "to",
          "type": "address"
        },
        {
          "internalType": "uint256",
          "name": "tokenId",
          "type": "uint256"
        }
      ],
      "name": "approve",
      "outputs": [],
      "stateMutability": "nonpayable",
      "type": "function"
    },
    {
      "inputs": [
        {
          "internalType": "address",
          "name": "owner",
          "type": "address"
        }
      ],
      "name": "balanceOf",
      "outputs": [
        {
          "internalType": "uint256",
          "name": "",
          "type": "uint256"
        }
      ],
      "stateMutability": "view",
      "type": "function"
    },
    {
      "inputs": [
        {
          "internalType": "uint256",
          "name": "tokenId",
          "type": "uint256"
        }
      ],
      "name": "getApproved",
      "outputs": [
        {
          "internalType": "address",
          "name": "",
          "type": "address"
        }
      ],
      "stateMutability": "view",
      "type": "function"
    },
    {
      "inputs": [
        {
          "internalType": "address",
          "name": "address_",
          "type": "address"
        }
      ],
      "name": "getTokenUriFromAddress",
      "outputs": [
        {
          "internalType": "string[]",
          "name": "",
          "type": "string[]"
        }
      ],
      "stateMutability": "view",
      "type": "function"
    },
    {
      "inputs": [
        {
          "internalType": "address",
          "name": "owner",
          "type": "address"
        },
        {
          "internalType": "address",
          "name": "operator",
          "type": "address"
        }
      ],
      "name": "isApprovedForAll",
      "outputs": [
        {
          "internalType": "bool",
          "name": "",
          "type": "bool"
        }
      ],
      "stateMutability": "view",
      "type": "function"
    },
    {
      "inputs": [
        {
          "internalType": "address",
          "name": "recipient",
          "type": "address"
        },
        {
          "internalType": "string",
          "name": "tokenURI",
          "type": "string"
        }
      ],
      "name": "mintNFT",
      "outputs": [
        {
          "internalType": "uint256",
          "name": "",
          "type": "uint256"
        }
      ],
      "stateMutability": "nonpayable",
      "type": "function"
    },
    {
      "inputs": [],
      "name": "name",
      "outputs": [
        {
          "internalType": "string",
          "name": "",
          "type": "string"
        }
      ],
      "stateMutability": "view",
      "type": "function"
    },
    {
      "inputs": [],
      "name": "owner",
      "outputs": [
        {
          "internalType": "address",
          "name": "",
          "type": "address"
        }
      ],
      "stateMutability": "view",
      "type": "function"
    },
    {
      "inputs": [
        {
          "internalType": "uint256",
          "name": "tokenId",
          "type": "uint256"
        }
      ],
      "name": "ownerOf",
      "outputs": [
        {
          "internalType": "address",
          "name": "",
          "type": "address"
        }
      ],
      "stateMutability": "view",
      "type": "function"
    },
    {
      "inputs": [],
      "name": "renounceOwnership",
      "outputs": [],
      "stateMutability": "nonpayable",
      "type": "function"
    },
    {
      "inputs": [
        {
          "internalType": "address",
          "name": "from",
          "type": "address"
        },
        {
          "internalType": "address",
          "name": "to",
          "type": "address"
        },
        {
          "internalType": "uint256",
          "name": "tokenId",
          "type": "uint256"
        }
      ],
      "name": "safeTransferFrom",
      "outputs": [],
      "stateMutability": "nonpayable",
      "type": "function"
    },
    {
      "inputs": [
        {
          "internalType": "address",
          "name": "from",
          "type": "address"
        },
        {
          "internalType": "address",
          "name": "to",
          "type": "address"
        },
        {
          "internalType": "uint256",
          "name": "tokenId",
          "type": "uint256"
        },
        {
          "internalType": "bytes",
          "name": "data",
          "type": "bytes"
        }
      ],
      "name": "safeTransferFrom",
      "outputs": [],
      "stateMutability": "nonpayable",
      "type": "function"
    },
    {
      "inputs": [
        {
          "internalType": "address",
          "name": "operator",
          "type": "address"
        },
        {
          "internalType": "bool",
          "name": "approved",
          "type": "bool"
        }
      ],
      "name": "setApprovalForAll",
      "outputs": [],
      "stateMutability": "nonpayable",
      "type": "function"
    },
    {
      "inputs": [
        {
          "internalType": "bytes4",
          "name": "interfaceId",
          "type": "bytes4"
        }
      ],
      "name": "supportsInterface",
      "outputs": [
        {
          "internalType": "bool",
          "name": "",
          "type": "bool"
        }
      ],
      "stateMutability": "view",
      "type": "function"
    },
    {
      "inputs": [],
      "name": "symbol",
      "outputs": [
        {
          "internalType": "string",
          "name": "",
          "type": "string"
        }
      ],
      "stateMutability": "view",
      "type": "function"
    },
    {
      "inputs": [
        {
          "internalType": "uint256",
          "name": "index",
          "type": "uint256"
        }
      ],
      "name": "tokenByIndex",
      "outputs": [
        {
          "internalType": "uint256",
          "name": "",
          "type": "uint256"
        }
      ],
      "stateMutability": "view",
      "type": "function"
    },
    {
      "inputs": [
        {
          "internalType": "address",
          "name": "owner",
          "type": "address"
        },
        {
          "internalType": "uint256",
          "name": "index",
          "type": "uint256"
        }
      ],
      "name": "tokenOfOwnerByIndex",
      "outputs": [
        {
          "internalType": "uint256",
          "name": "",
          "type": "uint256"
        }
      ],
      "stateMutability": "view",
      "type": "function"
    },
    {
      "inputs": [
        {
          "internalType": "uint256",
          "name": "tokenId",
          "type": "uint256"
        }
      ],
      "name": "tokenURI",
      "outputs": [
        {
          "internalType": "string",
          "name": "",
          "type": "string"
        }
      ],
      "stateMutability": "view",
      "type": "function"
    },
    {
      "inputs": [],
      "name": "totalSupply",
      "outputs": [
        {
          "internalType": "uint256",
          "name": "",
          "type": "uint256"
        }
      ],
      "stateMutability": "view",
      "type": "function"
    },
    {
      "inputs": [
        {
          "internalType": "address",
          "name": "from",
          "type": "address"
        },
        {
          "internalType": "address",
          "name": "to",
          "type": "address"
        },
        {
          "internalType": "uint256",
          "name": "tokenId",
          "type": "uint256"
        }
      ],
      "name": "transferFrom",
      "outputs": [],
      "stateMutability": "nonpayable",
      "type": "function"
    },
    {
      "inputs": [
        {
          "internalType": "address",
          "name": "newOwner",
          "type": "address"
        }
      ],
      "name": "transferOwnership",
      "outputs": [],
      "stateMutability": "nonpayable",
      "type": "function"
    }
  ],
  "bytecode": "0x60806040523480156200001157600080fd5b506040518060400160405280600881526020017f566d696e614e46540000000000000000000000000000000000000000000000008152506040518060400160405280600481526020017f564e465400000000000000000000000000000000000000000000000000000000815250816000908051906020019062000096929190620001a6565b508060019080519060200190620000af929190620001a6565b505050620000d2620000c6620000d860201b60201c565b620000e060201b60201c565b620002bb565b600033905090565b6000600b60009054906101000a900473ffffffffffffffffffffffffffffffffffffffff16905081600b60006101000a81548173ffffffffffffffffffffffffffffffffffffffff021916908373ffffffffffffffffffffffffffffffffffffffff1602179055508173ffffffffffffffffffffffffffffffffffffffff168173ffffffffffffffffffffffffffffffffffffffff167f8be0079c531659141344cd1fd0a4f28419497f9722a3daafe3b4186f6b6457e060405160405180910390a35050565b828054620001b49062000285565b90600052602060002090601f016020900481019282620001d8576000855562000224565b82601f10620001f357805160ff191683800117855562000224565b8280016001018555821562000224579182015b828111156200022357825182559160200191906001019062000206565b5b50905062000233919062000237565b5090565b5b808211156200025257600081600090555060010162000238565b5090565b7f4e487b7100000000000000000000000000000000000000000000000000000000600052602260045260246000fd5b600060028204905060018216806200029e57607f821691505b60208210811415620002b557620002b462000256565b5b50919050565b61375780620002cb6000396000f3fe608060405234801561001057600080fd5b50600436106101375760003560e01c80636352211e116100b8578063a22cb4651161007c578063a22cb46514610362578063b88d4fde1461037e578063c87b56dd1461039a578063e985e9c5146103ca578063eacabe14146103fa578063f2fde38b1461042a57610137565b80636352211e146102bc57806370a08231146102ec578063715018a61461031c5780638da5cb5b1461032657806395d89b411461034457610137565b80631c701361116100ff5780631c701361146101f457806323b872dd146102245780632f745c591461024057806342842e0e146102705780634f6ccce71461028c57610137565b806301ffc9a71461013c57806306fdde031461016c578063081812fc1461018a578063095ea7b3146101ba57806318160ddd146101d6575b600080fd5b61015660048036038101906101519190612316565b610446565b604051610163919061235e565b60405180910390f35b610174610458565b6040516101819190612412565b60405180910390f35b6101a4600480360381019061019f919061246a565b6104ea565b6040516101b191906124d8565b60405180910390f35b6101d460048036038101906101cf919061251f565b610530565b005b6101de610648565b6040516101eb919061256e565b60405180910390f35b61020e60048036038101906102099190612589565b610655565b60405161021b91906126c2565b60405180910390f35b61023e600480360381019061023991906126e4565b610715565b005b61025a6004803603810190610255919061251f565b610775565b604051610267919061256e565b60405180910390f35b61028a600480360381019061028591906126e4565b61081a565b005b6102a660048036038101906102a1919061246a565b61083a565b6040516102b3919061256e565b60405180910390f35b6102d660048036038101906102d1919061246a565b6108ab565b6040516102e391906124d8565b60405180910390f35b61030660048036038101906103019190612589565b61095d565b604051610313919061256e565b60405180910390f35b610324610a15565b005b61032e610a29565b60405161033b91906124d8565b60405180910390f35b61034c610a53565b6040516103599190612412565b60405180910390f35b61037c60048036038101906103779190612763565b610ae5565b005b610398600480360381019061039391906128d8565b610afb565b005b6103b460048036038101906103af919061246a565b610b5d565b6040516103c19190612412565b60405180910390f35b6103e460048036038101906103df919061295b565b610b6f565b6040516103f1919061235e565b60405180910390f35b610414600480360381019061040f9190612a3c565b610c03565b604051610421919061256e565b60405180910390f35b610444600480360381019061043f9190612589565b610c43565b005b600061045182610cc7565b9050919050565b60606000805461046790612ac7565b80601f016020809104026020016040519081016040528092919081815260200182805461049390612ac7565b80156104e05780601f106104b5576101008083540402835291602001916104e0565b820191906000526020600020905b8154815290600101906020018083116104c357829003601f168201915b5050505050905090565b60006104f582610d41565b6004600083815260200190815260200160002060009054906101000a900473ffffffffffffffffffffffffffffffffffffffff169050919050565b600061053b826108ab565b90508073ffffffffffffffffffffffffffffffffffffffff168373ffffffffffffffffffffffffffffffffffffffff1614156105ac576040517f08c379a00000000000000000000000000000000000000000000000000000000081526004016105a390612b6b565b60405180910390fd5b8073ffffffffffffffffffffffffffffffffffffffff166105cb610d8c565b73ffffffffffffffffffffffffffffffffffffffff1614806105fa57506105f9816105f4610d8c565b610b6f565b5b610639576040517f08c379a000000000000000000000000000000000000000000000000000000000815260040161063090612bfd565b60405180910390fd5b6106438383610d94565b505050565b6000600980549050905090565b606060006106628361095d565b905060008167ffffffffffffffff8111156106805761067f6127ad565b5b6040519080825280602002602001820160405280156106b357816020015b606081526020019060019003908161069e5790505b50905060005b8281101561070a5760006106cd8683610775565b90506106d881610b5d565b8383815181106106eb576106ea612c1d565b5b602002602001018190525050808061070290612c7b565b9150506106b9565b508092505050919050565b610726610720610d8c565b82610e4d565b610765576040517f08c379a000000000000000000000000000000000000000000000000000000000815260040161075c90612d36565b60405180910390fd5b610770838383610ee2565b505050565b60006107808361095d565b82106107c1576040517f08c379a00000000000000000000000000000000000000000000000000000000081526004016107b890612dc8565b60405180910390fd5b600760008473ffffffffffffffffffffffffffffffffffffffff1673ffffffffffffffffffffffffffffffffffffffff168152602001908152602001600020600083815260200190815260200160002054905092915050565b61083583838360405180602001604052806000815250610afb565b505050565b6000610844610648565b8210610885576040517f08c379a000000000000000000000000000000000000000000000000000000000815260040161087c90612e5a565b60405180910390fd5b6009828154811061089957610898612c1d565b5b90600052602060002001549050919050565b6000806002600084815260200190815260200160002060009054906101000a900473ffffffffffffffffffffffffffffffffffffffff169050600073ffffffffffffffffffffffffffffffffffffffff168173ffffffffffffffffffffffffffffffffffffffff161415610954576040517f08c379a000000000000000000000000000000000000000000000000000000000815260040161094b90612ec6565b60405180910390fd5b80915050919050565b60008073ffffffffffffffffffffffffffffffffffffffff168273ffffffffffffffffffffffffffffffffffffffff1614156109ce576040517f08c379a00000000000000000000000000000000000000000000000000000000081526004016109c590612f58565b60405180910390fd5b600360008373ffffffffffffffffffffffffffffffffffffffff1673ffffffffffffffffffffffffffffffffffffffff168152602001908152602001600020549050919050565b610a1d611149565b610a2760006111c7565b565b6000600b60009054906101000a900473ffffffffffffffffffffffffffffffffffffffff16905090565b606060018054610a6290612ac7565b80601f0160208091040260200160405190810160405280929190818152602001828054610a8e90612ac7565b8015610adb5780601f10610ab057610100808354040283529160200191610adb565b820191906000526020600020905b815481529060010190602001808311610abe57829003601f168201915b5050505050905090565b610af7610af0610d8c565b838361128d565b5050565b610b0c610b06610d8c565b83610e4d565b610b4b576040517f08c379a0000000000000000000000000000000000000000000000000000000008152600401610b4290612d36565b60405180910390fd5b610b57848484846113fa565b50505050565b6060610b6882611456565b9050919050565b6000600560008473ffffffffffffffffffffffffffffffffffffffff1673ffffffffffffffffffffffffffffffffffffffff16815260200190815260200160002060008373ffffffffffffffffffffffffffffffffffffffff1673ffffffffffffffffffffffffffffffffffffffff16815260200190815260200160002060009054906101000a900460ff16905092915050565b6000610c0d611149565b610c17600c611569565b6000610c23600c61157f565b9050610c2f848261158d565b610c398184611767565b8091505092915050565b610c4b611149565b600073ffffffffffffffffffffffffffffffffffffffff168173ffffffffffffffffffffffffffffffffffffffff161415610cbb576040517f08c379a0000000000000000000000000000000000000000000000000000000008152600401610cb290612fea565b60405180910390fd5b610cc4816111c7565b50565b60007f780e9d63000000000000000000000000000000000000000000000000000000007bffffffffffffffffffffffffffffffffffffffffffffffffffffffff1916827bffffffffffffffffffffffffffffffffffffffffffffffffffffffff19161480610d3a5750610d39826117db565b5b9050919050565b610d4a816118bd565b610d89576040517f08c379a0000000000000000000000000000000000000000000000000000000008152600401610d8090612ec6565b60405180910390fd5b50565b600033905090565b816004600083815260200190815260200160002060006101000a81548173ffffffffffffffffffffffffffffffffffffffff021916908373ffffffffffffffffffffffffffffffffffffffff160217905550808273ffffffffffffffffffffffffffffffffffffffff16610e07836108ab565b73ffffffffffffffffffffffffffffffffffffffff167f8c5be1e5ebec7d5bd14f71427d1e84f3dd0314c0f7b2291e5b200ac8c7c3b92560405160405180910390a45050565b600080610e59836108ab565b90508073ffffffffffffffffffffffffffffffffffffffff168473ffffffffffffffffffffffffffffffffffffffff161480610e9b5750610e9a8185610b6f565b5b80610ed957508373ffffffffffffffffffffffffffffffffffffffff16610ec1846104ea565b73ffffffffffffffffffffffffffffffffffffffff16145b91505092915050565b8273ffffffffffffffffffffffffffffffffffffffff16610f02826108ab565b73ffffffffffffffffffffffffffffffffffffffff1614610f58576040517f08c379a0000000000000000000000000000000000000000000000000000000008152600401610f4f9061307c565b60405180910390fd5b600073ffffffffffffffffffffffffffffffffffffffff168273ffffffffffffffffffffffffffffffffffffffff161415610fc8576040517f08c379a0000000000000000000000000000000000000000000000000000000008152600401610fbf9061310e565b60405180910390fd5b610fd3838383611929565b610fde600082610d94565b6001600360008573ffffffffffffffffffffffffffffffffffffffff1673ffffffffffffffffffffffffffffffffffffffff168152602001908152602001600020600082825461102e919061312e565b925050819055506001600360008473ffffffffffffffffffffffffffffffffffffffff1673ffffffffffffffffffffffffffffffffffffffff16815260200190815260200160002060008282546110859190613162565b92505081905550816002600083815260200190815260200160002060006101000a81548173ffffffffffffffffffffffffffffffffffffffff021916908373ffffffffffffffffffffffffffffffffffffffff160217905550808273ffffffffffffffffffffffffffffffffffffffff168473ffffffffffffffffffffffffffffffffffffffff167fddf252ad1be2c89b69c2b068fc378daa952ba7f163c4a11628f55a4df523b3ef60405160405180910390a46111448383836119df565b505050565b611151610d8c565b73ffffffffffffffffffffffffffffffffffffffff1661116f610a29565b73ffffffffffffffffffffffffffffffffffffffff16146111c5576040517f08c379a00000000000000000000000000000000000000000000000000000000081526004016111bc90613204565b60405180910390fd5b565b6000600b60009054906101000a900473ffffffffffffffffffffffffffffffffffffffff16905081600b60006101000a81548173ffffffffffffffffffffffffffffffffffffffff021916908373ffffffffffffffffffffffffffffffffffffffff1602179055508173ffffffffffffffffffffffffffffffffffffffff168173ffffffffffffffffffffffffffffffffffffffff167f8be0079c531659141344cd1fd0a4f28419497f9722a3daafe3b4186f6b6457e060405160405180910390a35050565b8173ffffffffffffffffffffffffffffffffffffffff168373ffffffffffffffffffffffffffffffffffffffff1614156112fc576040517f08c379a00000000000000000000000000000000000000000000000000000000081526004016112f390613270565b60405180910390fd5b80600560008573ffffffffffffffffffffffffffffffffffffffff1673ffffffffffffffffffffffffffffffffffffffff16815260200190815260200160002060008473ffffffffffffffffffffffffffffffffffffffff1673ffffffffffffffffffffffffffffffffffffffff16815260200190815260200160002060006101000a81548160ff0219169083151502179055508173ffffffffffffffffffffffffffffffffffffffff168373ffffffffffffffffffffffffffffffffffffffff167f17307eab39ab6107e8899845ad3d59bd9653f200f220920489ca2b5937696c31836040516113ed919061235e565b60405180910390a3505050565b611405848484610ee2565b611411848484846119e4565b611450576040517f08c379a000000000000000000000000000000000000000000000000000000000815260040161144790613302565b60405180910390fd5b50505050565b606061146182610d41565b600060066000848152602001908152602001600020805461148190612ac7565b80601f01602080910402602001604051908101604052809291908181526020018280546114ad90612ac7565b80156114fa5780601f106114cf576101008083540402835291602001916114fa565b820191906000526020600020905b8154815290600101906020018083116114dd57829003601f168201915b50505050509050600061150b611b7b565b9050600081511415611521578192505050611564565b60008251111561155657808260405160200161153e92919061335e565b60405160208183030381529060405292505050611564565b61155f84611b92565b925050505b919050565b6001816000016000828254019250508190555050565b600081600001549050919050565b600073ffffffffffffffffffffffffffffffffffffffff168273ffffffffffffffffffffffffffffffffffffffff1614156115fd576040517f08c379a00000000000000000000000000000000000000000000000000000000081526004016115f4906133ce565b60405180910390fd5b611606816118bd565b15611646576040517f08c379a000000000000000000000000000000000000000000000000000000000815260040161163d9061343a565b60405180910390fd5b61165260008383611929565b6001600360008473ffffffffffffffffffffffffffffffffffffffff1673ffffffffffffffffffffffffffffffffffffffff16815260200190815260200160002060008282546116a29190613162565b92505081905550816002600083815260200190815260200160002060006101000a81548173ffffffffffffffffffffffffffffffffffffffff021916908373ffffffffffffffffffffffffffffffffffffffff160217905550808273ffffffffffffffffffffffffffffffffffffffff16600073ffffffffffffffffffffffffffffffffffffffff167fddf252ad1be2c89b69c2b068fc378daa952ba7f163c4a11628f55a4df523b3ef60405160405180910390a4611763600083836119df565b5050565b611770826118bd565b6117af576040517f08c379a00000000000000000000000000000000000000000000000000000000081526004016117a6906134cc565b60405180910390fd5b806006600084815260200190815260200160002090805190602001906117d6929190612207565b505050565b60007f80ac58cd000000000000000000000000000000000000000000000000000000007bffffffffffffffffffffffffffffffffffffffffffffffffffffffff1916827bffffffffffffffffffffffffffffffffffffffffffffffffffffffff191614806118a657507f5b5e139f000000000000000000000000000000000000000000000000000000007bffffffffffffffffffffffffffffffffffffffffffffffffffffffff1916827bffffffffffffffffffffffffffffffffffffffffffffffffffffffff1916145b806118b657506118b582611bfa565b5b9050919050565b60008073ffffffffffffffffffffffffffffffffffffffff166002600084815260200190815260200160002060009054906101000a900473ffffffffffffffffffffffffffffffffffffffff1673ffffffffffffffffffffffffffffffffffffffff1614159050919050565b600073ffffffffffffffffffffffffffffffffffffffff168373ffffffffffffffffffffffffffffffffffffffff1614806119905750600073ffffffffffffffffffffffffffffffffffffffff168273ffffffffffffffffffffffffffffffffffffffff16145b6119cf576040517f08c379a00000000000000000000000000000000000000000000000000000000081526004016119c69061355e565b60405180910390fd5b6119da838383611c64565b505050565b505050565b6000611a058473ffffffffffffffffffffffffffffffffffffffff16611d78565b15611b6e578373ffffffffffffffffffffffffffffffffffffffff1663150b7a02611a2e610d8c565b8786866040518563ffffffff1660e01b8152600401611a5094939291906135d3565b602060405180830381600087803b158015611a6a57600080fd5b505af1925050508015611a9b57506040513d601f19601f82011682018060405250810190611a989190613634565b60015b611b1e573d8060008114611acb576040519150601f19603f3d011682016040523d82523d6000602084013e611ad0565b606091505b50600081511415611b16576040517f08c379a0000000000000000000000000000000000000000000000000000000008152600401611b0d90613302565b60405180910390fd5b805181602001fd5b63150b7a0260e01b7bffffffffffffffffffffffffffffffffffffffffffffffffffffffff1916817bffffffffffffffffffffffffffffffffffffffffffffffffffffffff191614915050611b73565b600190505b949350505050565b606060405180602001604052806000815250905090565b6060611b9d82610d41565b6000611ba7611b7b565b90506000815111611bc75760405180602001604052806000815250611bf2565b80611bd184611d9b565b604051602001611be292919061335e565b6040516020818303038152906040525b915050919050565b60007f01ffc9a7000000000000000000000000000000000000000000000000000000007bffffffffffffffffffffffffffffffffffffffffffffffffffffffff1916827bffffffffffffffffffffffffffffffffffffffffffffffffffffffff1916149050919050565b611c6f838383611efc565b600073ffffffffffffffffffffffffffffffffffffffff168373ffffffffffffffffffffffffffffffffffffffff161415611cb257611cad81611f01565b611cf1565b8173ffffffffffffffffffffffffffffffffffffffff168373ffffffffffffffffffffffffffffffffffffffff1614611cf057611cef8382611f4a565b5b5b600073ffffffffffffffffffffffffffffffffffffffff168273ffffffffffffffffffffffffffffffffffffffff161415611d3457611d2f816120b7565b611d73565b8273ffffffffffffffffffffffffffffffffffffffff168273ffffffffffffffffffffffffffffffffffffffff1614611d7257611d718282612188565b5b5b505050565b6000808273ffffffffffffffffffffffffffffffffffffffff163b119050919050565b60606000821415611de3576040518060400160405280600181526020017f30000000000000000000000000000000000000000000000000000000000000008152509050611ef7565b600082905060005b60008214611e15578080611dfe90612c7b565b915050600a82611e0e9190613690565b9150611deb565b60008167ffffffffffffffff811115611e3157611e306127ad565b5b6040519080825280601f01601f191660200182016040528015611e635781602001600182028036833780820191505090505b5090505b60008514611ef057600182611e7c919061312e565b9150600a85611e8b91906136c1565b6030611e979190613162565b60f81b818381518110611ead57611eac612c1d565b5b60200101907effffffffffffffffffffffffffffffffffffffffffffffffffffffffffffff1916908160001a905350600a85611ee99190613690565b9450611e67565b8093505050505b919050565b505050565b600980549050600a600083815260200190815260200160002081905550600981908060018154018082558091505060019003906000526020600020016000909190919091505550565b60006001611f578461095d565b611f61919061312e565b9050600060086000848152602001908152602001600020549050818114612046576000600760008673ffffffffffffffffffffffffffffffffffffffff1673ffffffffffffffffffffffffffffffffffffffff168152602001908152602001600020600084815260200190815260200160002054905080600760008773ffffffffffffffffffffffffffffffffffffffff1673ffffffffffffffffffffffffffffffffffffffff168152602001908152602001600020600084815260200190815260200160002081905550816008600083815260200190815260200160002081905550505b6008600084815260200190815260200160002060009055600760008573ffffffffffffffffffffffffffffffffffffffff1673ffffffffffffffffffffffffffffffffffffffff16815260200190815260200160002060008381526020019081526020016000206000905550505050565b600060016009805490506120cb919061312e565b90506000600a60008481526020019081526020016000205490506000600983815481106120fb576120fa612c1d565b5b90600052602060002001549050806009838154811061211d5761211c612c1d565b5b906000526020600020018190555081600a600083815260200190815260200160002081905550600a600085815260200190815260200160002060009055600980548061216c5761216b6136f2565b5b6001900381819060005260206000200160009055905550505050565b60006121938361095d565b905081600760008573ffffffffffffffffffffffffffffffffffffffff1673ffffffffffffffffffffffffffffffffffffffff168152602001908152602001600020600083815260200190815260200160002081905550806008600084815260200190815260200160002081905550505050565b82805461221390612ac7565b90600052602060002090601f016020900481019282612235576000855561227c565b82601f1061224e57805160ff191683800117855561227c565b8280016001018555821561227c579182015b8281111561227b578251825591602001919060010190612260565b5b509050612289919061228d565b5090565b5b808211156122a657600081600090555060010161228e565b5090565b6000604051905090565b600080fd5b600080fd5b60007fffffffff0000000000000000000000000000000000000000000000000000000082169050919050565b6122f3816122be565b81146122fe57600080fd5b50565b600081359050612310816122ea565b92915050565b60006020828403121561232c5761232b6122b4565b5b600061233a84828501612301565b91505092915050565b60008115159050919050565b61235881612343565b82525050565b6000602082019050612373600083018461234f565b92915050565b600081519050919050565b600082825260208201905092915050565b60005b838110156123b3578082015181840152602081019050612398565b838111156123c2576000848401525b50505050565b6000601f19601f8301169050919050565b60006123e482612379565b6123ee8185612384565b93506123fe818560208601612395565b612407816123c8565b840191505092915050565b6000602082019050818103600083015261242c81846123d9565b905092915050565b6000819050919050565b61244781612434565b811461245257600080fd5b50565b6000813590506124648161243e565b92915050565b6000602082840312156124805761247f6122b4565b5b600061248e84828501612455565b91505092915050565b600073ffffffffffffffffffffffffffffffffffffffff82169050919050565b60006124c282612497565b9050919050565b6124d2816124b7565b82525050565b60006020820190506124ed60008301846124c9565b92915050565b6124fc816124b7565b811461250757600080fd5b50565b600081359050612519816124f3565b92915050565b60008060408385031215612536576125356122b4565b5b60006125448582860161250a565b925050602061255585828601612455565b9150509250929050565b61256881612434565b82525050565b6000602082019050612583600083018461255f565b92915050565b60006020828403121561259f5761259e6122b4565b5b60006125ad8482850161250a565b91505092915050565b600081519050919050565b600082825260208201905092915050565b6000819050602082019050919050565b600082825260208201905092915050565b60006125fe82612379565b61260881856125e2565b9350612618818560208601612395565b612621816123c8565b840191505092915050565b600061263883836125f3565b905092915050565b6000602082019050919050565b6000612658826125b6565b61266281856125c1565b935083602082028501612674856125d2565b8060005b858110156126b05784840389528151612691858261262c565b945061269c83612640565b925060208a01995050600181019050612678565b50829750879550505050505092915050565b600060208201905081810360008301526126dc818461264d565b905092915050565b6000806000606084860312156126fd576126fc6122b4565b5b600061270b8682870161250a565b935050602061271c8682870161250a565b925050604061272d86828701612455565b9150509250925092565b61274081612343565b811461274b57600080fd5b50565b60008135905061275d81612737565b92915050565b6000806040838503121561277a576127796122b4565b5b60006127888582860161250a565b92505060206127998582860161274e565b9150509250929050565b600080fd5b600080fd5b7f4e487b7100000000000000000000000000000000000000000000000000000000600052604160045260246000fd5b6127e5826123c8565b810181811067ffffffffffffffff82111715612804576128036127ad565b5b80604052505050565b60006128176122aa565b905061282382826127dc565b919050565b600067ffffffffffffffff821115612843576128426127ad565b5b61284c826123c8565b9050602081019050919050565b82818337600083830152505050565b600061287b61287684612828565b61280d565b905082815260208101848484011115612897576128966127a8565b5b6128a2848285612859565b509392505050565b600082601f8301126128bf576128be6127a3565b5b81356128cf848260208601612868565b91505092915050565b600080600080608085870312156128f2576128f16122b4565b5b60006129008782880161250a565b94505060206129118782880161250a565b935050604061292287828801612455565b925050606085013567ffffffffffffffff811115612943576129426122b9565b5b61294f878288016128aa565b91505092959194509250565b60008060408385031215612972576129716122b4565b5b60006129808582860161250a565b92505060206129918582860161250a565b9150509250929050565b600067ffffffffffffffff8211156129b6576129b56127ad565b5b6129bf826123c8565b9050602081019050919050565b60006129df6129da8461299b565b61280d565b9050828152602081018484840111156129fb576129fa6127a8565b5b612a06848285612859565b509392505050565b600082601f830112612a2357612a226127a3565b5b8135612a338482602086016129cc565b91505092915050565b60008060408385031215612a5357612a526122b4565b5b6000612a618582860161250a565b925050602083013567ffffffffffffffff811115612a8257612a816122b9565b5b612a8e85828601612a0e565b9150509250929050565b7f4e487b7100000000000000000000000000000000000000000000000000000000600052602260045260246000fd5b60006002820490506001821680612adf57607f821691505b60208210811415612af357612af2612a98565b5b50919050565b7f4552433732313a20617070726f76616c20746f2063757272656e74206f776e6560008201527f7200000000000000000000000000000000000000000000000000000000000000602082015250565b6000612b55602183612384565b9150612b6082612af9565b604082019050919050565b60006020820190508181036000830152612b8481612b48565b9050919050565b7f4552433732313a20617070726f76652063616c6c6572206973206e6f7420746f60008201527f6b656e206f776e6572206e6f7220617070726f76656420666f7220616c6c0000602082015250565b6000612be7603e83612384565b9150612bf282612b8b565b604082019050919050565b60006020820190508181036000830152612c1681612bda565b9050919050565b7f4e487b7100000000000000000000000000000000000000000000000000000000600052603260045260246000fd5b7f4e487b7100000000000000000000000000000000000000000000000000000000600052601160045260246000fd5b6000612c8682612434565b91507fffffffffffffffffffffffffffffffffffffffffffffffffffffffffffffffff821415612cb957612cb8612c4c565b5b600182019050919050565b7f4552433732313a2063616c6c6572206973206e6f7420746f6b656e206f776e6560008201527f72206e6f7220617070726f766564000000000000000000000000000000000000602082015250565b6000612d20602e83612384565b9150612d2b82612cc4565b604082019050919050565b60006020820190508181036000830152612d4f81612d13565b9050919050565b7f455243373231456e756d657261626c653a206f776e657220696e646578206f7560008201527f74206f6620626f756e6473000000000000000000000000000000000000000000602082015250565b6000612db2602b83612384565b9150612dbd82612d56565b604082019050919050565b60006020820190508181036000830152612de181612da5565b9050919050565b7f455243373231456e756d657261626c653a20676c6f62616c20696e646578206f60008201527f7574206f6620626f756e64730000000000000000000000000000000000000000602082015250565b6000612e44602c83612384565b9150612e4f82612de8565b604082019050919050565b60006020820190508181036000830152612e7381612e37565b9050919050565b7f4552433732313a20696e76616c696420746f6b656e2049440000000000000000600082015250565b6000612eb0601883612384565b9150612ebb82612e7a565b602082019050919050565b60006020820190508181036000830152612edf81612ea3565b9050919050565b7f4552433732313a2061646472657373207a65726f206973206e6f74206120766160008201527f6c6964206f776e65720000000000000000000000000000000000000000000000602082015250565b6000612f42602983612384565b9150612f4d82612ee6565b604082019050919050565b60006020820190508181036000830152612f7181612f35565b9050919050565b7f4f776e61626c653a206e6577206f776e657220697320746865207a65726f206160008201527f6464726573730000000000000000000000000000000000000000000000000000602082015250565b6000612fd4602683612384565b9150612fdf82612f78565b604082019050919050565b6000602082019050818103600083015261300381612fc7565b9050919050565b7f4552433732313a207472616e736665722066726f6d20696e636f72726563742060008201527f6f776e6572000000000000000000000000000000000000000000000000000000602082015250565b6000613066602583612384565b91506130718261300a565b604082019050919050565b6000602082019050818103600083015261309581613059565b9050919050565b7f4552433732313a207472616e7366657220746f20746865207a65726f2061646460008201527f7265737300000000000000000000000000000000000000000000000000000000602082015250565b60006130f8602483612384565b91506131038261309c565b604082019050919050565b60006020820190508181036000830152613127816130eb565b9050919050565b600061313982612434565b915061314483612434565b92508282101561315757613156612c4c565b5b828203905092915050565b600061316d82612434565b915061317883612434565b9250827fffffffffffffffffffffffffffffffffffffffffffffffffffffffffffffffff038211156131ad576131ac612c4c565b5b828201905092915050565b7f4f776e61626c653a2063616c6c6572206973206e6f7420746865206f776e6572600082015250565b60006131ee602083612384565b91506131f9826131b8565b602082019050919050565b6000602082019050818103600083015261321d816131e1565b9050919050565b7f4552433732313a20617070726f766520746f2063616c6c657200000000000000600082015250565b600061325a601983612384565b915061326582613224565b602082019050919050565b600060208201905081810360008301526132898161324d565b9050919050565b7f4552433732313a207472616e7366657220746f206e6f6e20455243373231526560008201527f63656976657220696d706c656d656e7465720000000000000000000000000000602082015250565b60006132ec603283612384565b91506132f782613290565b604082019050919050565b6000602082019050818103600083015261331b816132df565b9050919050565b600081905092915050565b600061333882612379565b6133428185613322565b9350613352818560208601612395565b80840191505092915050565b600061336a828561332d565b9150613376828461332d565b91508190509392505050565b7f4552433732313a206d696e7420746f20746865207a65726f2061646472657373600082015250565b60006133b8602083612384565b91506133c382613382565b602082019050919050565b600060208201905081810360008301526133e7816133ab565b9050919050565b7f4552433732313a20746f6b656e20616c7265616479206d696e74656400000000600082015250565b6000613424601c83612384565b915061342f826133ee565b602082019050919050565b6000602082019050818103600083015261345381613417565b9050919050565b7f45524337323155524953746f726167653a2055524920736574206f66206e6f6e60008201527f6578697374656e7420746f6b656e000000000000000000000000000000000000602082015250565b60006134b6602e83612384565b91506134c18261345a565b604082019050919050565b600060208201905081810360008301526134e5816134a9565b9050919050565b7f4e6f6e5472616e736665727261626c65455243373231546f6b656e3a206e6f6e60008201527f207472616e736665727261626c65000000000000000000000000000000000000602082015250565b6000613548602e83612384565b9150613553826134ec565b604082019050919050565b600060208201905081810360008301526135778161353b565b9050919050565b600081519050919050565b600082825260208201905092915050565b60006135a58261357e565b6135af8185613589565b93506135bf818560208601612395565b6135c8816123c8565b840191505092915050565b60006080820190506135e860008301876124c9565b6135f560208301866124c9565b613602604083018561255f565b8181036060830152613614818461359a565b905095945050505050565b60008151905061362e816122ea565b92915050565b60006020828403121561364a576136496122b4565b5b60006136588482850161361f565b91505092915050565b7f4e487b7100000000000000000000000000000000000000000000000000000000600052601260045260246000fd5b600061369b82612434565b91506136a683612434565b9250826136b6576136b5613661565b5b828204905092915050565b60006136cc82612434565b91506136d783612434565b9250826136e7576136e6613661565b5b828206905092915050565b7f4e487b7100000000000000000000000000000000000000000000000000000000600052603160045260246000fdfea26469706673582212206f5ac1169d6e9e651658c809a9ad158b0ad5ade35c5725898152d89876871c4f64736f6c63430008090033",
  "linkReferences": {},
  "deployedLinkReferences": {}
}